{
	"Tim_kiem_nhi_phan/index.sol": {
		"Search": {
			"abi": [
				{
					"inputs": [
						{
							"internalType": "uint256[]",
							"name": "array",
							"type": "uint256[]"
						},
						{
							"internalType": "uint256",
							"name": "element",
							"type": "uint256"
						}
					],
					"name": "findUpperBound",
					"outputs": [
						{
							"internalType": "bool",
							"name": "",
							"type": "bool"
						}
					],
					"stateMutability": "pure",
					"type": "function"
				}
			],
			"devdoc": {
				"kind": "dev",
				"methods": {},
				"version": 1
			},
			"evm": {
				"assembly": "    /* \"Tim_kiem_nhi_phan/index.sol\":285:1106  contract Search is BinarySearch{\r... */\n  mstore(0x40, 0x80)\n  callvalue\n  dup1\n  iszero\n  tag_1\n  jumpi\n  0x00\n  dup1\n  revert\ntag_1:\n  pop\n  dataSize(sub_0)\n  dup1\n  dataOffset(sub_0)\n  0x00\n  codecopy\n  0x00\n  return\nstop\n\nsub_0: assembly {\n        /* \"Tim_kiem_nhi_phan/index.sol\":285:1106  contract Search is BinarySearch{\r... */\n      mstore(0x40, 0x80)\n      callvalue\n      dup1\n      iszero\n      tag_1\n      jumpi\n      0x00\n      dup1\n      revert\n    tag_1:\n      pop\n      jumpi(tag_2, lt(calldatasize, 0x04))\n      shr(0xe0, calldataload(0x00))\n      dup1\n      0xcd59bed9\n      eq\n      tag_3\n      jumpi\n    tag_2:\n      0x00\n      dup1\n      revert\n        /* \"Tim_kiem_nhi_phan/index.sol\":325:1102  function findUpperBound(uint256[] calldata array, uint256 element) external override pure returns (bool) {\r... */\n    tag_3:\n      tag_4\n      0x04\n      dup1\n      calldatasize\n      sub\n      dup2\n      add\n      swap1\n      tag_5\n      swap2\n      swap1\n      tag_6\n      jump\t// in\n    tag_5:\n      tag_7\n      jump\t// in\n    tag_4:\n      mload(0x40)\n      tag_8\n      swap2\n      swap1\n      tag_9\n      jump\t// in\n    tag_8:\n      mload(0x40)\n      dup1\n      swap2\n      sub\n      swap1\n      return\n    tag_7:\n        /* \"Tim_kiem_nhi_phan/index.sol\":424:428  bool */\n      0x00\n        /* \"Tim_kiem_nhi_phan/index.sol\":461:462  0 */\n      dup1\n        /* \"Tim_kiem_nhi_phan/index.sol\":445:450  array */\n      dup5\n      dup5\n        /* \"Tim_kiem_nhi_phan/index.sol\":445:457  array.length */\n      swap1\n      pop\n        /* \"Tim_kiem_nhi_phan/index.sol\":445:462  array.length == 0 */\n      eq\n        /* \"Tim_kiem_nhi_phan/index.sol\":441:503  if (array.length == 0) {\r... */\n      iszero\n      tag_11\n      jumpi\n        /* \"Tim_kiem_nhi_phan/index.sol\":486:491  false */\n      0x00\n        /* \"Tim_kiem_nhi_phan/index.sol\":479:491  return false */\n      swap1\n      pop\n      jump(tag_10)\n        /* \"Tim_kiem_nhi_phan/index.sol\":441:503  if (array.length == 0) {\r... */\n    tag_11:\n        /* \"Tim_kiem_nhi_phan/index.sol\":513:524  uint256 low */\n      0x00\n        /* \"Tim_kiem_nhi_phan/index.sol\":539:551  uint256 high */\n      dup1\n        /* \"Tim_kiem_nhi_phan/index.sol\":577:578  1 */\n      0x01\n        /* \"Tim_kiem_nhi_phan/index.sol\":562:567  array */\n      dup7\n      dup7\n        /* \"Tim_kiem_nhi_phan/index.sol\":562:574  array.length */\n      swap1\n      pop\n        /* \"Tim_kiem_nhi_phan/index.sol\":562:578  array.length - 1 */\n      tag_12\n      swap2\n      swap1\n      tag_13\n      jump\t// in\n    tag_12:\n        /* \"Tim_kiem_nhi_phan/index.sol\":539:579  uint256 high = uint256(array.length - 1) */\n      swap1\n      pop\n        /* \"Tim_kiem_nhi_phan/index.sol\":590:1072  while(low<=high){\r... */\n    tag_14:\n        /* \"Tim_kiem_nhi_phan/index.sol\":601:605  high */\n      dup1\n        /* \"Tim_kiem_nhi_phan/index.sol\":596:599  low */\n      dup3\n        /* \"Tim_kiem_nhi_phan/index.sol\":596:605  low<=high */\n      gt\n        /* \"Tim_kiem_nhi_phan/index.sol\":590:1072  while(low<=high){\r... */\n      tag_15\n      jumpi\n        /* \"Tim_kiem_nhi_phan/index.sol\":779:790  uint256 mid */\n      0x00\n        /* \"Tim_kiem_nhi_phan/index.sol\":816:817  2 */\n      0x02\n        /* \"Tim_kiem_nhi_phan/index.sol\":808:812  high */\n      dup3\n        /* \"Tim_kiem_nhi_phan/index.sol\":802:805  low */\n      dup5\n        /* \"Tim_kiem_nhi_phan/index.sol\":802:812  low + high */\n      tag_16\n      swap2\n      swap1\n      tag_17\n      jump\t// in\n    tag_16:\n        /* \"Tim_kiem_nhi_phan/index.sol\":801:817  (low + high) / 2 */\n      tag_18\n      swap2\n      swap1\n      tag_19\n      jump\t// in\n    tag_18:\n        /* \"Tim_kiem_nhi_phan/index.sol\":779:818  uint256 mid = uint256((low + high) / 2) */\n      swap1\n      pop\n        /* \"Tim_kiem_nhi_phan/index.sol\":847:852  array */\n      dup7\n      dup7\n        /* \"Tim_kiem_nhi_phan/index.sol\":853:856  mid */\n      dup3\n        /* \"Tim_kiem_nhi_phan/index.sol\":847:857  array[mid] */\n      dup2\n      dup2\n      lt\n      tag_20\n      jumpi\n      tag_21\n      tag_22\n      jump\t// in\n    tag_21:\n    tag_20:\n      swap1\n      pop\n      0x20\n      mul\n      add\n      calldataload\n        /* \"Tim_kiem_nhi_phan/index.sol\":836:843  element */\n      dup6\n        /* \"Tim_kiem_nhi_phan/index.sol\":836:857  element == array[mid] */\n      eq\n        /* \"Tim_kiem_nhi_phan/index.sol\":833:904  if(element == array[mid]){\r... */\n      iszero\n      tag_23\n      jumpi\n        /* \"Tim_kiem_nhi_phan/index.sol\":884:888  true */\n      0x01\n        /* \"Tim_kiem_nhi_phan/index.sol\":877:888  return true */\n      swap4\n      pop\n      pop\n      pop\n      pop\n      jump(tag_10)\n        /* \"Tim_kiem_nhi_phan/index.sol\":833:904  if(element == array[mid]){\r... */\n    tag_23:\n        /* \"Tim_kiem_nhi_phan/index.sol\":931:936  array */\n      dup7\n      dup7\n        /* \"Tim_kiem_nhi_phan/index.sol\":937:940  mid */\n      dup3\n        /* \"Tim_kiem_nhi_phan/index.sol\":931:941  array[mid] */\n      dup2\n      dup2\n      lt\n      tag_24\n      jumpi\n      tag_25\n      tag_22\n      jump\t// in\n    tag_25:\n    tag_24:\n      swap1\n      pop\n      0x20\n      mul\n      add\n      calldataload\n        /* \"Tim_kiem_nhi_phan/index.sol\":921:928  element */\n      dup6\n        /* \"Tim_kiem_nhi_phan/index.sol\":921:941  element < array[mid] */\n      lt\n        /* \"Tim_kiem_nhi_phan/index.sol\":918:1045  if(element < array[mid]){\r... */\n      iszero\n      tag_26\n      jumpi\n        /* \"Tim_kiem_nhi_phan/index.sol\":974:975  1 */\n      0x01\n        /* \"Tim_kiem_nhi_phan/index.sol\":968:971  mid */\n      dup2\n        /* \"Tim_kiem_nhi_phan/index.sol\":968:975  mid - 1 */\n      tag_27\n      swap2\n      swap1\n      tag_13\n      jump\t// in\n    tag_27:\n        /* \"Tim_kiem_nhi_phan/index.sol\":961:975  high = mid - 1 */\n      swap2\n      pop\n        /* \"Tim_kiem_nhi_phan/index.sol\":918:1045  if(element < array[mid]){\r... */\n      jump(tag_28)\n    tag_26:\n        /* \"Tim_kiem_nhi_phan/index.sol\":1028:1029  1 */\n      0x01\n        /* \"Tim_kiem_nhi_phan/index.sol\":1022:1025  mid */\n      dup2\n        /* \"Tim_kiem_nhi_phan/index.sol\":1022:1029  mid + 1 */\n      tag_29\n      swap2\n      swap1\n      tag_17\n      jump\t// in\n    tag_29:\n        /* \"Tim_kiem_nhi_phan/index.sol\":1016:1029  low = mid + 1 */\n      swap3\n      pop\n        /* \"Tim_kiem_nhi_phan/index.sol\":918:1045  if(element < array[mid]){\r... */\n    tag_28:\n        /* \"Tim_kiem_nhi_phan/index.sol\":606:1072  {\r... */\n      pop\n        /* \"Tim_kiem_nhi_phan/index.sol\":590:1072  while(low<=high){\r... */\n      jump(tag_14)\n    tag_15:\n        /* \"Tim_kiem_nhi_phan/index.sol\":1089:1094  false */\n      0x00\n        /* \"Tim_kiem_nhi_phan/index.sol\":1082:1094  return false */\n      swap3\n      pop\n      pop\n      pop\n        /* \"Tim_kiem_nhi_phan/index.sol\":325:1102  function findUpperBound(uint256[] calldata array, uint256 element) external override pure returns (bool) {\r... */\n    tag_10:\n      swap4\n      swap3\n      pop\n      pop\n      pop\n      jump\t// out\n        /* \"#utility.yul\":24:592   */\n    tag_31:\n        /* \"#utility.yul\":97:105   */\n      0x00\n        /* \"#utility.yul\":107:113   */\n      dup1\n        /* \"#utility.yul\":157:160   */\n      dup4\n        /* \"#utility.yul\":150:154   */\n      0x1f\n        /* \"#utility.yul\":142:148   */\n      dup5\n        /* \"#utility.yul\":138:155   */\n      add\n        /* \"#utility.yul\":134:161   */\n      slt\n        /* \"#utility.yul\":124:246   */\n      tag_33\n      jumpi\n        /* \"#utility.yul\":165:244   */\n      tag_34\n      tag_35\n      jump\t// in\n    tag_34:\n        /* \"#utility.yul\":124:246   */\n    tag_33:\n        /* \"#utility.yul\":278:284   */\n      dup3\n        /* \"#utility.yul\":265:285   */\n      calldataload\n        /* \"#utility.yul\":255:285   */\n      swap1\n      pop\n        /* \"#utility.yul\":308:326   */\n      0xffffffffffffffff\n        /* \"#utility.yul\":300:306   */\n      dup2\n        /* \"#utility.yul\":297:327   */\n      gt\n        /* \"#utility.yul\":294:411   */\n      iszero\n      tag_36\n      jumpi\n        /* \"#utility.yul\":330:409   */\n      tag_37\n      tag_38\n      jump\t// in\n    tag_37:\n        /* \"#utility.yul\":294:411   */\n    tag_36:\n        /* \"#utility.yul\":444:448   */\n      0x20\n        /* \"#utility.yul\":436:442   */\n      dup4\n        /* \"#utility.yul\":432:449   */\n      add\n        /* \"#utility.yul\":420:449   */\n      swap2\n      pop\n        /* \"#utility.yul\":498:501   */\n      dup4\n        /* \"#utility.yul\":490:494   */\n      0x20\n        /* \"#utility.yul\":482:488   */\n      dup3\n        /* \"#utility.yul\":478:495   */\n      mul\n        /* \"#utility.yul\":468:476   */\n      dup4\n        /* \"#utility.yul\":464:496   */\n      add\n        /* \"#utility.yul\":461:502   */\n      gt\n        /* \"#utility.yul\":458:586   */\n      iszero\n      tag_39\n      jumpi\n        /* \"#utility.yul\":505:584   */\n      tag_40\n      tag_41\n      jump\t// in\n    tag_40:\n        /* \"#utility.yul\":458:586   */\n    tag_39:\n        /* \"#utility.yul\":24:592   */\n      swap3\n      pop\n      swap3\n      swap1\n      pop\n      jump\t// out\n        /* \"#utility.yul\":598:737   */\n    tag_42:\n        /* \"#utility.yul\":644:649   */\n      0x00\n        /* \"#utility.yul\":682:688   */\n      dup2\n        /* \"#utility.yul\":669:689   */\n      calldataload\n        /* \"#utility.yul\":660:689   */\n      swap1\n      pop\n        /* \"#utility.yul\":698:731   */\n      tag_44\n        /* \"#utility.yul\":725:730   */\n      dup2\n        /* \"#utility.yul\":698:731   */\n      tag_45\n      jump\t// in\n    tag_44:\n        /* \"#utility.yul\":598:737   */\n      swap3\n      swap2\n      pop\n      pop\n      jump\t// out\n        /* \"#utility.yul\":743:1447   */\n    tag_6:\n        /* \"#utility.yul\":838:844   */\n      0x00\n        /* \"#utility.yul\":846:852   */\n      dup1\n        /* \"#utility.yul\":854:860   */\n      0x00\n        /* \"#utility.yul\":903:905   */\n      0x40\n        /* \"#utility.yul\":891:900   */\n      dup5\n        /* \"#utility.yul\":882:889   */\n      dup7\n        /* \"#utility.yul\":878:901   */\n      sub\n        /* \"#utility.yul\":874:906   */\n      slt\n        /* \"#utility.yul\":871:990   */\n      iszero\n      tag_47\n      jumpi\n        /* \"#utility.yul\":909:988   */\n      tag_48\n      tag_49\n      jump\t// in\n    tag_48:\n        /* \"#utility.yul\":871:990   */\n    tag_47:\n        /* \"#utility.yul\":1057:1058   */\n      0x00\n        /* \"#utility.yul\":1046:1055   */\n      dup5\n        /* \"#utility.yul\":1042:1059   */\n      add\n        /* \"#utility.yul\":1029:1060   */\n      calldataload\n        /* \"#utility.yul\":1087:1105   */\n      0xffffffffffffffff\n        /* \"#utility.yul\":1079:1085   */\n      dup2\n        /* \"#utility.yul\":1076:1106   */\n      gt\n        /* \"#utility.yul\":1073:1190   */\n      iszero\n      tag_50\n      jumpi\n        /* \"#utility.yul\":1109:1188   */\n      tag_51\n      tag_52\n      jump\t// in\n    tag_51:\n        /* \"#utility.yul\":1073:1190   */\n    tag_50:\n        /* \"#utility.yul\":1222:1302   */\n      tag_53\n        /* \"#utility.yul\":1294:1301   */\n      dup7\n        /* \"#utility.yul\":1285:1291   */\n      dup3\n        /* \"#utility.yul\":1274:1283   */\n      dup8\n        /* \"#utility.yul\":1270:1292   */\n      add\n        /* \"#utility.yul\":1222:1302   */\n      tag_31\n      jump\t// in\n    tag_53:\n        /* \"#utility.yul\":1204:1302   */\n      swap4\n      pop\n      swap4\n      pop\n        /* \"#utility.yul\":1000:1312   */\n      pop\n        /* \"#utility.yul\":1351:1353   */\n      0x20\n        /* \"#utility.yul\":1377:1430   */\n      tag_54\n        /* \"#utility.yul\":1422:1429   */\n      dup7\n        /* \"#utility.yul\":1413:1419   */\n      dup3\n        /* \"#utility.yul\":1402:1411   */\n      dup8\n        /* \"#utility.yul\":1398:1420   */\n      add\n        /* \"#utility.yul\":1377:1430   */\n      tag_42\n      jump\t// in\n    tag_54:\n        /* \"#utility.yul\":1367:1430   */\n      swap2\n      pop\n        /* \"#utility.yul\":1322:1440   */\n      pop\n        /* \"#utility.yul\":743:1447   */\n      swap3\n      pop\n      swap3\n      pop\n      swap3\n      jump\t// out\n        /* \"#utility.yul\":1453:1562   */\n    tag_55:\n        /* \"#utility.yul\":1534:1555   */\n      tag_57\n        /* \"#utility.yul\":1549:1554   */\n      dup2\n        /* \"#utility.yul\":1534:1555   */\n      tag_58\n      jump\t// in\n    tag_57:\n        /* \"#utility.yul\":1529:1532   */\n      dup3\n        /* \"#utility.yul\":1522:1556   */\n      mstore\n        /* \"#utility.yul\":1453:1562   */\n      pop\n      pop\n      jump\t// out\n        /* \"#utility.yul\":1568:1778   */\n    tag_9:\n        /* \"#utility.yul\":1655:1659   */\n      0x00\n        /* \"#utility.yul\":1693:1695   */\n      0x20\n        /* \"#utility.yul\":1682:1691   */\n      dup3\n        /* \"#utility.yul\":1678:1696   */\n      add\n        /* \"#utility.yul\":1670:1696   */\n      swap1\n      pop\n        /* \"#utility.yul\":1706:1771   */\n      tag_60\n        /* \"#utility.yul\":1768:1769   */\n      0x00\n        /* \"#utility.yul\":1757:1766   */\n      dup4\n        /* \"#utility.yul\":1753:1770   */\n      add\n        /* \"#utility.yul\":1744:1750   */\n      dup5\n        /* \"#utility.yul\":1706:1771   */\n      tag_55\n      jump\t// in\n    tag_60:\n        /* \"#utility.yul\":1568:1778   */\n      swap3\n      swap2\n      pop\n      pop\n      jump\t// out\n        /* \"#utility.yul\":1865:2170   */\n    tag_17:\n        /* \"#utility.yul\":1905:1908   */\n      0x00\n        /* \"#utility.yul\":1924:1944   */\n      tag_64\n        /* \"#utility.yul\":1942:1943   */\n      dup3\n        /* \"#utility.yul\":1924:1944   */\n      tag_65\n      jump\t// in\n    tag_64:\n        /* \"#utility.yul\":1919:1944   */\n      swap2\n      pop\n        /* \"#utility.yul\":1958:1978   */\n      tag_66\n        /* \"#utility.yul\":1976:1977   */\n      dup4\n        /* \"#utility.yul\":1958:1978   */\n      tag_65\n      jump\t// in\n    tag_66:\n        /* \"#utility.yul\":1953:1978   */\n      swap3\n      pop\n        /* \"#utility.yul\":2112:2113   */\n      dup3\n        /* \"#utility.yul\":2044:2110   */\n      0xffffffffffffffffffffffffffffffffffffffffffffffffffffffffffffffff\n        /* \"#utility.yul\":2040:2114   */\n      sub\n        /* \"#utility.yul\":2037:2038   */\n      dup3\n        /* \"#utility.yul\":2034:2115   */\n      gt\n        /* \"#utility.yul\":2031:2138   */\n      iszero\n      tag_67\n      jumpi\n        /* \"#utility.yul\":2118:2136   */\n      tag_68\n      tag_69\n      jump\t// in\n    tag_68:\n        /* \"#utility.yul\":2031:2138   */\n    tag_67:\n        /* \"#utility.yul\":2162:2163   */\n      dup3\n        /* \"#utility.yul\":2159:2160   */\n      dup3\n        /* \"#utility.yul\":2155:2164   */\n      add\n        /* \"#utility.yul\":2148:2164   */\n      swap1\n      pop\n        /* \"#utility.yul\":1865:2170   */\n      swap3\n      swap2\n      pop\n      pop\n      jump\t// out\n        /* \"#utility.yul\":2176:2361   */\n    tag_19:\n        /* \"#utility.yul\":2216:2217   */\n      0x00\n        /* \"#utility.yul\":2233:2253   */\n      tag_71\n        /* \"#utility.yul\":2251:2252   */\n      dup3\n        /* \"#utility.yul\":2233:2253   */\n      tag_65\n      jump\t// in\n    tag_71:\n        /* \"#utility.yul\":2228:2253   */\n      swap2\n      pop\n        /* \"#utility.yul\":2267:2287   */\n      tag_72\n        /* \"#utility.yul\":2285:2286   */\n      dup4\n        /* \"#utility.yul\":2267:2287   */\n      tag_65\n      jump\t// in\n    tag_72:\n        /* \"#utility.yul\":2262:2287   */\n      swap3\n      pop\n        /* \"#utility.yul\":2306:2307   */\n      dup3\n        /* \"#utility.yul\":2296:2331   */\n      tag_73\n      jumpi\n        /* \"#utility.yul\":2311:2329   */\n      tag_74\n      tag_75\n      jump\t// in\n    tag_74:\n        /* \"#utility.yul\":2296:2331   */\n    tag_73:\n        /* \"#utility.yul\":2353:2354   */\n      dup3\n        /* \"#utility.yul\":2350:2351   */\n      dup3\n        /* \"#utility.yul\":2346:2355   */\n      div\n        /* \"#utility.yul\":2341:2355   */\n      swap1\n      pop\n        /* \"#utility.yul\":2176:2361   */\n      swap3\n      swap2\n      pop\n      pop\n      jump\t// out\n        /* \"#utility.yul\":2367:2558   */\n    tag_13:\n        /* \"#utility.yul\":2407:2411   */\n      0x00\n        /* \"#utility.yul\":2427:2447   */\n      tag_77\n        /* \"#utility.yul\":2445:2446   */\n      dup3\n        /* \"#utility.yul\":2427:2447   */\n      tag_65\n      jump\t// in\n    tag_77:\n        /* \"#utility.yul\":2422:2447   */\n      swap2\n      pop\n        /* \"#utility.yul\":2461:2481   */\n      tag_78\n        /* \"#utility.yul\":2479:2480   */\n      dup4\n        /* \"#utility.yul\":2461:2481   */\n      tag_65\n      jump\t// in\n    tag_78:\n        /* \"#utility.yul\":2456:2481   */\n      swap3\n      pop\n        /* \"#utility.yul\":2500:2501   */\n      dup3\n        /* \"#utility.yul\":2497:2498   */\n      dup3\n        /* \"#utility.yul\":2494:2502   */\n      lt\n        /* \"#utility.yul\":2491:2525   */\n      iszero\n      tag_79\n      jumpi\n        /* \"#utility.yul\":2505:2523   */\n      tag_80\n      tag_69\n      jump\t// in\n    tag_80:\n        /* \"#utility.yul\":2491:2525   */\n    tag_79:\n        /* \"#utility.yul\":2550:2551   */\n      dup3\n        /* \"#utility.yul\":2547:2548   */\n      dup3\n        /* \"#utility.yul\":2543:2552   */\n      sub\n        /* \"#utility.yul\":2535:2552   */\n      swap1\n      pop\n        /* \"#utility.yul\":2367:2558   */\n      swap3\n      swap2\n      pop\n      pop\n      jump\t// out\n        /* \"#utility.yul\":2564:2654   */\n    tag_58:\n        /* \"#utility.yul\":2598:2605   */\n      0x00\n        /* \"#utility.yul\":2641:2646   */\n      dup2\n        /* \"#utility.yul\":2634:2647   */\n      iszero\n        /* \"#utility.yul\":2627:2648   */\n      iszero\n        /* \"#utility.yul\":2616:2648   */\n      swap1\n      pop\n        /* \"#utility.yul\":2564:2654   */\n      swap2\n      swap1\n      pop\n      jump\t// out\n        /* \"#utility.yul\":2660:2737   */\n    tag_65:\n        /* \"#utility.yul\":2697:2704   */\n      0x00\n        /* \"#utility.yul\":2726:2731   */\n      dup2\n        /* \"#utility.yul\":2715:2731   */\n      swap1\n      pop\n        /* \"#utility.yul\":2660:2737   */\n      swap2\n      swap1\n      pop\n      jump\t// out\n        /* \"#utility.yul\":2743:2923   */\n    tag_69:\n        /* \"#utility.yul\":2791:2868   */\n      0x4e487b7100000000000000000000000000000000000000000000000000000000\n        /* \"#utility.yul\":2788:2789   */\n      0x00\n        /* \"#utility.yul\":2781:2869   */\n      mstore\n        /* \"#utility.yul\":2888:2892   */\n      0x11\n        /* \"#utility.yul\":2885:2886   */\n      0x04\n        /* \"#utility.yul\":2878:2893   */\n      mstore\n        /* \"#utility.yul\":2912:2916   */\n      0x24\n        /* \"#utility.yul\":2909:2910   */\n      0x00\n        /* \"#utility.yul\":2902:2917   */\n      revert\n        /* \"#utility.yul\":2929:3109   */\n    tag_75:\n        /* \"#utility.yul\":2977:3054   */\n      0x4e487b7100000000000000000000000000000000000000000000000000000000\n        /* \"#utility.yul\":2974:2975   */\n      0x00\n        /* \"#utility.yul\":2967:3055   */\n      mstore\n        /* \"#utility.yul\":3074:3078   */\n      0x12\n        /* \"#utility.yul\":3071:3072   */\n      0x04\n        /* \"#utility.yul\":3064:3079   */\n      mstore\n        /* \"#utility.yul\":3098:3102   */\n      0x24\n        /* \"#utility.yul\":3095:3096   */\n      0x00\n        /* \"#utility.yul\":3088:3103   */\n      revert\n        /* \"#utility.yul\":3115:3295   */\n    tag_22:\n        /* \"#utility.yul\":3163:3240   */\n      0x4e487b7100000000000000000000000000000000000000000000000000000000\n        /* \"#utility.yul\":3160:3161   */\n      0x00\n        /* \"#utility.yul\":3153:3241   */\n      mstore\n        /* \"#utility.yul\":3260:3264   */\n      0x32\n        /* \"#utility.yul\":3257:3258   */\n      0x04\n        /* \"#utility.yul\":3250:3265   */\n      mstore\n        /* \"#utility.yul\":3284:3288   */\n      0x24\n        /* \"#utility.yul\":3281:3282   */\n      0x00\n        /* \"#utility.yul\":3274:3289   */\n      revert\n        /* \"#utility.yul\":3301:3418   */\n    tag_38:\n        /* \"#utility.yul\":3410:3411   */\n      0x00\n        /* \"#utility.yul\":3407:3408   */\n      dup1\n        /* \"#utility.yul\":3400:3412   */\n      revert\n        /* \"#utility.yul\":3424:3541   */\n    tag_35:\n        /* \"#utility.yul\":3533:3534   */\n      0x00\n        /* \"#utility.yul\":3530:3531   */\n      dup1\n        /* \"#utility.yul\":3523:3535   */\n      revert\n        /* \"#utility.yul\":3547:3664   */\n    tag_41:\n        /* \"#utility.yul\":3656:3657   */\n      0x00\n        /* \"#utility.yul\":3653:3654   */\n      dup1\n        /* \"#utility.yul\":3646:3658   */\n      revert\n        /* \"#utility.yul\":3670:3787   */\n    tag_52:\n        /* \"#utility.yul\":3779:3780   */\n      0x00\n        /* \"#utility.yul\":3776:3777   */\n      dup1\n        /* \"#utility.yul\":3769:3781   */\n      revert\n        /* \"#utility.yul\":3793:3910   */\n    tag_49:\n        /* \"#utility.yul\":3902:3903   */\n      0x00\n        /* \"#utility.yul\":3899:3900   */\n      dup1\n        /* \"#utility.yul\":3892:3904   */\n      revert\n        /* \"#utility.yul\":3916:4038   */\n    tag_45:\n        /* \"#utility.yul\":3989:4013   */\n      tag_92\n        /* \"#utility.yul\":4007:4012   */\n      dup2\n        /* \"#utility.yul\":3989:4013   */\n      tag_65\n      jump\t// in\n    tag_92:\n        /* \"#utility.yul\":3982:3987   */\n      dup2\n        /* \"#utility.yul\":3979:4014   */\n      eq\n        /* \"#utility.yul\":3969:4032   */\n      tag_93\n      jumpi\n        /* \"#utility.yul\":4028:4029   */\n      0x00\n        /* \"#utility.yul\":4025:4026   */\n      dup1\n        /* \"#utility.yul\":4018:4030   */\n      revert\n        /* \"#utility.yul\":3969:4032   */\n    tag_93:\n        /* \"#utility.yul\":3916:4038   */\n      pop\n      jump\t// out\n\n    auxdata: 0xa2646970667358221220274ee721336e81748bbf482800a82cc6304e310ed389bea1ccd4766b950ae7c064736f6c63430008070033\n}\n",
				"bytecode": {
					"linkReferences": {},
					"object": "608060405234801561001057600080fd5b506103ee806100206000396000f3fe608060405234801561001057600080fd5b506004361061002b5760003560e01c8063cd59bed914610030575b600080fd5b61004a600480360381019061004591906101a0565b610060565b604051610057919061020f565b60405180910390f35b600080848490501415610076576000905061012e565b60008060018686905061008991906102b1565b90505b808211610127576000600282846100a3919061022a565b6100ad9190610280565b90508686828181106100c2576100c1610359565b5b905060200201358514156100dc576001935050505061012e565b8686828181106100ef576100ee610359565b5b905060200201358510156101115760018161010a91906102b1565b9150610121565b60018161011e919061022a565b92505b5061008c565b6000925050505b9392505050565b60008083601f84011261014b5761014a61038d565b5b8235905067ffffffffffffffff81111561016857610167610388565b5b60208301915083602082028301111561018457610183610392565b5b9250929050565b60008135905061019a816103a1565b92915050565b6000806000604084860312156101b9576101b861039c565b5b600084013567ffffffffffffffff8111156101d7576101d6610397565b5b6101e386828701610135565b935093505060206101f68682870161018b565b9150509250925092565b610209816102e5565b82525050565b60006020820190506102246000830184610200565b92915050565b6000610235826102f1565b9150610240836102f1565b9250827fffffffffffffffffffffffffffffffffffffffffffffffffffffffffffffffff03821115610275576102746102fb565b5b828201905092915050565b600061028b826102f1565b9150610296836102f1565b9250826102a6576102a561032a565b5b828204905092915050565b60006102bc826102f1565b91506102c7836102f1565b9250828210156102da576102d96102fb565b5b828203905092915050565b60008115159050919050565b6000819050919050565b7f4e487b7100000000000000000000000000000000000000000000000000000000600052601160045260246000fd5b7f4e487b7100000000000000000000000000000000000000000000000000000000600052601260045260246000fd5b7f4e487b7100000000000000000000000000000000000000000000000000000000600052603260045260246000fd5b600080fd5b600080fd5b600080fd5b600080fd5b600080fd5b6103aa816102f1565b81146103b557600080fd5b5056fea2646970667358221220274ee721336e81748bbf482800a82cc6304e310ed389bea1ccd4766b950ae7c064736f6c63430008070033",
					"opcodes": "PUSH1 0x80 PUSH1 0x40 MSTORE CALLVALUE DUP1 ISZERO PUSH2 0x10 JUMPI PUSH1 0x0 DUP1 REVERT JUMPDEST POP PUSH2 0x3EE DUP1 PUSH2 0x20 PUSH1 0x0 CODECOPY PUSH1 0x0 RETURN INVALID PUSH1 0x80 PUSH1 0x40 MSTORE CALLVALUE DUP1 ISZERO PUSH2 0x10 JUMPI PUSH1 0x0 DUP1 REVERT JUMPDEST POP PUSH1 0x4 CALLDATASIZE LT PUSH2 0x2B JUMPI PUSH1 0x0 CALLDATALOAD PUSH1 0xE0 SHR DUP1 PUSH4 0xCD59BED9 EQ PUSH2 0x30 JUMPI JUMPDEST PUSH1 0x0 DUP1 REVERT JUMPDEST PUSH2 0x4A PUSH1 0x4 DUP1 CALLDATASIZE SUB DUP2 ADD SWAP1 PUSH2 0x45 SWAP2 SWAP1 PUSH2 0x1A0 JUMP JUMPDEST PUSH2 0x60 JUMP JUMPDEST PUSH1 0x40 MLOAD PUSH2 0x57 SWAP2 SWAP1 PUSH2 0x20F JUMP JUMPDEST PUSH1 0x40 MLOAD DUP1 SWAP2 SUB SWAP1 RETURN JUMPDEST PUSH1 0x0 DUP1 DUP5 DUP5 SWAP1 POP EQ ISZERO PUSH2 0x76 JUMPI PUSH1 0x0 SWAP1 POP PUSH2 0x12E JUMP JUMPDEST PUSH1 0x0 DUP1 PUSH1 0x1 DUP7 DUP7 SWAP1 POP PUSH2 0x89 SWAP2 SWAP1 PUSH2 0x2B1 JUMP JUMPDEST SWAP1 POP JUMPDEST DUP1 DUP3 GT PUSH2 0x127 JUMPI PUSH1 0x0 PUSH1 0x2 DUP3 DUP5 PUSH2 0xA3 SWAP2 SWAP1 PUSH2 0x22A JUMP JUMPDEST PUSH2 0xAD SWAP2 SWAP1 PUSH2 0x280 JUMP JUMPDEST SWAP1 POP DUP7 DUP7 DUP3 DUP2 DUP2 LT PUSH2 0xC2 JUMPI PUSH2 0xC1 PUSH2 0x359 JUMP JUMPDEST JUMPDEST SWAP1 POP PUSH1 0x20 MUL ADD CALLDATALOAD DUP6 EQ ISZERO PUSH2 0xDC JUMPI PUSH1 0x1 SWAP4 POP POP POP POP PUSH2 0x12E JUMP JUMPDEST DUP7 DUP7 DUP3 DUP2 DUP2 LT PUSH2 0xEF JUMPI PUSH2 0xEE PUSH2 0x359 JUMP JUMPDEST JUMPDEST SWAP1 POP PUSH1 0x20 MUL ADD CALLDATALOAD DUP6 LT ISZERO PUSH2 0x111 JUMPI PUSH1 0x1 DUP2 PUSH2 0x10A SWAP2 SWAP1 PUSH2 0x2B1 JUMP JUMPDEST SWAP2 POP PUSH2 0x121 JUMP JUMPDEST PUSH1 0x1 DUP2 PUSH2 0x11E SWAP2 SWAP1 PUSH2 0x22A JUMP JUMPDEST SWAP3 POP JUMPDEST POP PUSH2 0x8C JUMP JUMPDEST PUSH1 0x0 SWAP3 POP POP POP JUMPDEST SWAP4 SWAP3 POP POP POP JUMP JUMPDEST PUSH1 0x0 DUP1 DUP4 PUSH1 0x1F DUP5 ADD SLT PUSH2 0x14B JUMPI PUSH2 0x14A PUSH2 0x38D JUMP JUMPDEST JUMPDEST DUP3 CALLDATALOAD SWAP1 POP PUSH8 0xFFFFFFFFFFFFFFFF DUP2 GT ISZERO PUSH2 0x168 JUMPI PUSH2 0x167 PUSH2 0x388 JUMP JUMPDEST JUMPDEST PUSH1 0x20 DUP4 ADD SWAP2 POP DUP4 PUSH1 0x20 DUP3 MUL DUP4 ADD GT ISZERO PUSH2 0x184 JUMPI PUSH2 0x183 PUSH2 0x392 JUMP JUMPDEST JUMPDEST SWAP3 POP SWAP3 SWAP1 POP JUMP JUMPDEST PUSH1 0x0 DUP2 CALLDATALOAD SWAP1 POP PUSH2 0x19A DUP2 PUSH2 0x3A1 JUMP JUMPDEST SWAP3 SWAP2 POP POP JUMP JUMPDEST PUSH1 0x0 DUP1 PUSH1 0x0 PUSH1 0x40 DUP5 DUP7 SUB SLT ISZERO PUSH2 0x1B9 JUMPI PUSH2 0x1B8 PUSH2 0x39C JUMP JUMPDEST JUMPDEST PUSH1 0x0 DUP5 ADD CALLDATALOAD PUSH8 0xFFFFFFFFFFFFFFFF DUP2 GT ISZERO PUSH2 0x1D7 JUMPI PUSH2 0x1D6 PUSH2 0x397 JUMP JUMPDEST JUMPDEST PUSH2 0x1E3 DUP7 DUP3 DUP8 ADD PUSH2 0x135 JUMP JUMPDEST SWAP4 POP SWAP4 POP POP PUSH1 0x20 PUSH2 0x1F6 DUP7 DUP3 DUP8 ADD PUSH2 0x18B JUMP JUMPDEST SWAP2 POP POP SWAP3 POP SWAP3 POP SWAP3 JUMP JUMPDEST PUSH2 0x209 DUP2 PUSH2 0x2E5 JUMP JUMPDEST DUP3 MSTORE POP POP JUMP JUMPDEST PUSH1 0x0 PUSH1 0x20 DUP3 ADD SWAP1 POP PUSH2 0x224 PUSH1 0x0 DUP4 ADD DUP5 PUSH2 0x200 JUMP JUMPDEST SWAP3 SWAP2 POP POP JUMP JUMPDEST PUSH1 0x0 PUSH2 0x235 DUP3 PUSH2 0x2F1 JUMP JUMPDEST SWAP2 POP PUSH2 0x240 DUP4 PUSH2 0x2F1 JUMP JUMPDEST SWAP3 POP DUP3 PUSH32 0xFFFFFFFFFFFFFFFFFFFFFFFFFFFFFFFFFFFFFFFFFFFFFFFFFFFFFFFFFFFFFFFF SUB DUP3 GT ISZERO PUSH2 0x275 JUMPI PUSH2 0x274 PUSH2 0x2FB JUMP JUMPDEST JUMPDEST DUP3 DUP3 ADD SWAP1 POP SWAP3 SWAP2 POP POP JUMP JUMPDEST PUSH1 0x0 PUSH2 0x28B DUP3 PUSH2 0x2F1 JUMP JUMPDEST SWAP2 POP PUSH2 0x296 DUP4 PUSH2 0x2F1 JUMP JUMPDEST SWAP3 POP DUP3 PUSH2 0x2A6 JUMPI PUSH2 0x2A5 PUSH2 0x32A JUMP JUMPDEST JUMPDEST DUP3 DUP3 DIV SWAP1 POP SWAP3 SWAP2 POP POP JUMP JUMPDEST PUSH1 0x0 PUSH2 0x2BC DUP3 PUSH2 0x2F1 JUMP JUMPDEST SWAP2 POP PUSH2 0x2C7 DUP4 PUSH2 0x2F1 JUMP JUMPDEST SWAP3 POP DUP3 DUP3 LT ISZERO PUSH2 0x2DA JUMPI PUSH2 0x2D9 PUSH2 0x2FB JUMP JUMPDEST JUMPDEST DUP3 DUP3 SUB SWAP1 POP SWAP3 SWAP2 POP POP JUMP JUMPDEST PUSH1 0x0 DUP2 ISZERO ISZERO SWAP1 POP SWAP2 SWAP1 POP JUMP JUMPDEST PUSH1 0x0 DUP2 SWAP1 POP SWAP2 SWAP1 POP JUMP JUMPDEST PUSH32 0x4E487B7100000000000000000000000000000000000000000000000000000000 PUSH1 0x0 MSTORE PUSH1 0x11 PUSH1 0x4 MSTORE PUSH1 0x24 PUSH1 0x0 REVERT JUMPDEST PUSH32 0x4E487B7100000000000000000000000000000000000000000000000000000000 PUSH1 0x0 MSTORE PUSH1 0x12 PUSH1 0x4 MSTORE PUSH1 0x24 PUSH1 0x0 REVERT JUMPDEST PUSH32 0x4E487B7100000000000000000000000000000000000000000000000000000000 PUSH1 0x0 MSTORE PUSH1 0x32 PUSH1 0x4 MSTORE PUSH1 0x24 PUSH1 0x0 REVERT JUMPDEST PUSH1 0x0 DUP1 REVERT JUMPDEST PUSH1 0x0 DUP1 REVERT JUMPDEST PUSH1 0x0 DUP1 REVERT JUMPDEST PUSH1 0x0 DUP1 REVERT JUMPDEST PUSH1 0x0 DUP1 REVERT JUMPDEST PUSH2 0x3AA DUP2 PUSH2 0x2F1 JUMP JUMPDEST DUP2 EQ PUSH2 0x3B5 JUMPI PUSH1 0x0 DUP1 REVERT JUMPDEST POP JUMP INVALID LOG2 PUSH5 0x6970667358 0x22 SLT KECCAK256 0x27 0x4E 0xE7 0x21 CALLER PUSH15 0x81748BBF482800A82CC6304E310ED3 DUP10 0xBE LOG1 0xCC 0xD4 PUSH23 0x6B950AE7C064736F6C6343000807003300000000000000 "
				},
				"gasEstimates": {
					"creation": {
						"codeDepositCost": "201200",
						"executionCost": "245",
						"totalCost": "201445"
					},
					"external": {
						"findUpperBound(uint256[],uint256)": "infinite"
					}
				},
				"methodIdentifiers": {
					"findUpperBound(uint256[],uint256)": "cd59bed9"
				}
			},
			"storageLayout": {
				"storage": [],
				"types": null
			},
			"userdoc": {
				"kind": "user",
				"methods": {},
				"version": 1
			}
		}
	}
}