{
	"data": {
		"bytecode": {
			"linkReferences": {},
			"object": "608060405234801561001057600080fd5b506103ee806100206000396000f3fe608060405234801561001057600080fd5b506004361061002b5760003560e01c8063cd59bed914610030575b600080fd5b61004a600480360381019061004591906101a0565b610060565b604051610057919061020f565b60405180910390f35b600080848490501415610076576000905061012e565b60008060018686905061008991906102b1565b90505b808211610127576000600282846100a3919061022a565b6100ad9190610280565b90508686828181106100c2576100c1610359565b5b905060200201358514156100dc576001935050505061012e565b8686828181106100ef576100ee610359565b5b905060200201358510156101115760018161010a91906102b1565b9150610121565b60018161011e919061022a565b92505b5061008c565b6000925050505b9392505050565b60008083601f84011261014b5761014a61038d565b5b8235905067ffffffffffffffff81111561016857610167610388565b5b60208301915083602082028301111561018457610183610392565b5b9250929050565b60008135905061019a816103a1565b92915050565b6000806000604084860312156101b9576101b861039c565b5b600084013567ffffffffffffffff8111156101d7576101d6610397565b5b6101e386828701610135565b935093505060206101f68682870161018b565b9150509250925092565b610209816102e5565b82525050565b60006020820190506102246000830184610200565b92915050565b6000610235826102f1565b9150610240836102f1565b9250827fffffffffffffffffffffffffffffffffffffffffffffffffffffffffffffffff03821115610275576102746102fb565b5b828201905092915050565b600061028b826102f1565b9150610296836102f1565b9250826102a6576102a561032a565b5b828204905092915050565b60006102bc826102f1565b91506102c7836102f1565b9250828210156102da576102d96102fb565b5b828203905092915050565b60008115159050919050565b6000819050919050565b7f4e487b7100000000000000000000000000000000000000000000000000000000600052601160045260246000fd5b7f4e487b7100000000000000000000000000000000000000000000000000000000600052601260045260246000fd5b7f4e487b7100000000000000000000000000000000000000000000000000000000600052603260045260246000fd5b600080fd5b600080fd5b600080fd5b600080fd5b600080fd5b6103aa816102f1565b81146103b557600080fd5b5056fea26469706673582212209cd4de183509b015d947e2ce7b5110365551ade49dd96fae84b4ee11d2d2b3db64736f6c63430008070033",
			"opcodes": "PUSH1 0x80 PUSH1 0x40 MSTORE CALLVALUE DUP1 ISZERO PUSH2 0x10 JUMPI PUSH1 0x0 DUP1 REVERT JUMPDEST POP PUSH2 0x3EE DUP1 PUSH2 0x20 PUSH1 0x0 CODECOPY PUSH1 0x0 RETURN INVALID PUSH1 0x80 PUSH1 0x40 MSTORE CALLVALUE DUP1 ISZERO PUSH2 0x10 JUMPI PUSH1 0x0 DUP1 REVERT JUMPDEST POP PUSH1 0x4 CALLDATASIZE LT PUSH2 0x2B JUMPI PUSH1 0x0 CALLDATALOAD PUSH1 0xE0 SHR DUP1 PUSH4 0xCD59BED9 EQ PUSH2 0x30 JUMPI JUMPDEST PUSH1 0x0 DUP1 REVERT JUMPDEST PUSH2 0x4A PUSH1 0x4 DUP1 CALLDATASIZE SUB DUP2 ADD SWAP1 PUSH2 0x45 SWAP2 SWAP1 PUSH2 0x1A0 JUMP JUMPDEST PUSH2 0x60 JUMP JUMPDEST PUSH1 0x40 MLOAD PUSH2 0x57 SWAP2 SWAP1 PUSH2 0x20F JUMP JUMPDEST PUSH1 0x40 MLOAD DUP1 SWAP2 SUB SWAP1 RETURN JUMPDEST PUSH1 0x0 DUP1 DUP5 DUP5 SWAP1 POP EQ ISZERO PUSH2 0x76 JUMPI PUSH1 0x0 SWAP1 POP PUSH2 0x12E JUMP JUMPDEST PUSH1 0x0 DUP1 PUSH1 0x1 DUP7 DUP7 SWAP1 POP PUSH2 0x89 SWAP2 SWAP1 PUSH2 0x2B1 JUMP JUMPDEST SWAP1 POP JUMPDEST DUP1 DUP3 GT PUSH2 0x127 JUMPI PUSH1 0x0 PUSH1 0x2 DUP3 DUP5 PUSH2 0xA3 SWAP2 SWAP1 PUSH2 0x22A JUMP JUMPDEST PUSH2 0xAD SWAP2 SWAP1 PUSH2 0x280 JUMP JUMPDEST SWAP1 POP DUP7 DUP7 DUP3 DUP2 DUP2 LT PUSH2 0xC2 JUMPI PUSH2 0xC1 PUSH2 0x359 JUMP JUMPDEST JUMPDEST SWAP1 POP PUSH1 0x20 MUL ADD CALLDATALOAD DUP6 EQ ISZERO PUSH2 0xDC JUMPI PUSH1 0x1 SWAP4 POP POP POP POP PUSH2 0x12E JUMP JUMPDEST DUP7 DUP7 DUP3 DUP2 DUP2 LT PUSH2 0xEF JUMPI PUSH2 0xEE PUSH2 0x359 JUMP JUMPDEST JUMPDEST SWAP1 POP PUSH1 0x20 MUL ADD CALLDATALOAD DUP6 LT ISZERO PUSH2 0x111 JUMPI PUSH1 0x1 DUP2 PUSH2 0x10A SWAP2 SWAP1 PUSH2 0x2B1 JUMP JUMPDEST SWAP2 POP PUSH2 0x121 JUMP JUMPDEST PUSH1 0x1 DUP2 PUSH2 0x11E SWAP2 SWAP1 PUSH2 0x22A JUMP JUMPDEST SWAP3 POP JUMPDEST POP PUSH2 0x8C JUMP JUMPDEST PUSH1 0x0 SWAP3 POP POP POP JUMPDEST SWAP4 SWAP3 POP POP POP JUMP JUMPDEST PUSH1 0x0 DUP1 DUP4 PUSH1 0x1F DUP5 ADD SLT PUSH2 0x14B JUMPI PUSH2 0x14A PUSH2 0x38D JUMP JUMPDEST JUMPDEST DUP3 CALLDATALOAD SWAP1 POP PUSH8 0xFFFFFFFFFFFFFFFF DUP2 GT ISZERO PUSH2 0x168 JUMPI PUSH2 0x167 PUSH2 0x388 JUMP JUMPDEST JUMPDEST PUSH1 0x20 DUP4 ADD SWAP2 POP DUP4 PUSH1 0x20 DUP3 MUL DUP4 ADD GT ISZERO PUSH2 0x184 JUMPI PUSH2 0x183 PUSH2 0x392 JUMP JUMPDEST JUMPDEST SWAP3 POP SWAP3 SWAP1 POP JUMP JUMPDEST PUSH1 0x0 DUP2 CALLDATALOAD SWAP1 POP PUSH2 0x19A DUP2 PUSH2 0x3A1 JUMP JUMPDEST SWAP3 SWAP2 POP POP JUMP JUMPDEST PUSH1 0x0 DUP1 PUSH1 0x0 PUSH1 0x40 DUP5 DUP7 SUB SLT ISZERO PUSH2 0x1B9 JUMPI PUSH2 0x1B8 PUSH2 0x39C JUMP JUMPDEST JUMPDEST PUSH1 0x0 DUP5 ADD CALLDATALOAD PUSH8 0xFFFFFFFFFFFFFFFF DUP2 GT ISZERO PUSH2 0x1D7 JUMPI PUSH2 0x1D6 PUSH2 0x397 JUMP JUMPDEST JUMPDEST PUSH2 0x1E3 DUP7 DUP3 DUP8 ADD PUSH2 0x135 JUMP JUMPDEST SWAP4 POP SWAP4 POP POP PUSH1 0x20 PUSH2 0x1F6 DUP7 DUP3 DUP8 ADD PUSH2 0x18B JUMP JUMPDEST SWAP2 POP POP SWAP3 POP SWAP3 POP SWAP3 JUMP JUMPDEST PUSH2 0x209 DUP2 PUSH2 0x2E5 JUMP JUMPDEST DUP3 MSTORE POP POP JUMP JUMPDEST PUSH1 0x0 PUSH1 0x20 DUP3 ADD SWAP1 POP PUSH2 0x224 PUSH1 0x0 DUP4 ADD DUP5 PUSH2 0x200 JUMP JUMPDEST SWAP3 SWAP2 POP POP JUMP JUMPDEST PUSH1 0x0 PUSH2 0x235 DUP3 PUSH2 0x2F1 JUMP JUMPDEST SWAP2 POP PUSH2 0x240 DUP4 PUSH2 0x2F1 JUMP JUMPDEST SWAP3 POP DUP3 PUSH32 0xFFFFFFFFFFFFFFFFFFFFFFFFFFFFFFFFFFFFFFFFFFFFFFFFFFFFFFFFFFFFFFFF SUB DUP3 GT ISZERO PUSH2 0x275 JUMPI PUSH2 0x274 PUSH2 0x2FB JUMP JUMPDEST JUMPDEST DUP3 DUP3 ADD SWAP1 POP SWAP3 SWAP2 POP POP JUMP JUMPDEST PUSH1 0x0 PUSH2 0x28B DUP3 PUSH2 0x2F1 JUMP JUMPDEST SWAP2 POP PUSH2 0x296 DUP4 PUSH2 0x2F1 JUMP JUMPDEST SWAP3 POP DUP3 PUSH2 0x2A6 JUMPI PUSH2 0x2A5 PUSH2 0x32A JUMP JUMPDEST JUMPDEST DUP3 DUP3 DIV SWAP1 POP SWAP3 SWAP2 POP POP JUMP JUMPDEST PUSH1 0x0 PUSH2 0x2BC DUP3 PUSH2 0x2F1 JUMP JUMPDEST SWAP2 POP PUSH2 0x2C7 DUP4 PUSH2 0x2F1 JUMP JUMPDEST SWAP3 POP DUP3 DUP3 LT ISZERO PUSH2 0x2DA JUMPI PUSH2 0x2D9 PUSH2 0x2FB JUMP JUMPDEST JUMPDEST DUP3 DUP3 SUB SWAP1 POP SWAP3 SWAP2 POP POP JUMP JUMPDEST PUSH1 0x0 DUP2 ISZERO ISZERO SWAP1 POP SWAP2 SWAP1 POP JUMP JUMPDEST PUSH1 0x0 DUP2 SWAP1 POP SWAP2 SWAP1 POP JUMP JUMPDEST PUSH32 0x4E487B7100000000000000000000000000000000000000000000000000000000 PUSH1 0x0 MSTORE PUSH1 0x11 PUSH1 0x4 MSTORE PUSH1 0x24 PUSH1 0x0 REVERT JUMPDEST PUSH32 0x4E487B7100000000000000000000000000000000000000000000000000000000 PUSH1 0x0 MSTORE PUSH1 0x12 PUSH1 0x4 MSTORE PUSH1 0x24 PUSH1 0x0 REVERT JUMPDEST PUSH32 0x4E487B7100000000000000000000000000000000000000000000000000000000 PUSH1 0x0 MSTORE PUSH1 0x32 PUSH1 0x4 MSTORE PUSH1 0x24 PUSH1 0x0 REVERT JUMPDEST PUSH1 0x0 DUP1 REVERT JUMPDEST PUSH1 0x0 DUP1 REVERT JUMPDEST PUSH1 0x0 DUP1 REVERT JUMPDEST PUSH1 0x0 DUP1 REVERT JUMPDEST PUSH1 0x0 DUP1 REVERT JUMPDEST PUSH2 0x3AA DUP2 PUSH2 0x2F1 JUMP JUMPDEST DUP2 EQ PUSH2 0x3B5 JUMPI PUSH1 0x0 DUP1 REVERT JUMPDEST POP JUMP INVALID LOG2 PUSH5 0x6970667358 0x22 SLT KECCAK256 SWAP13 0xD4 0xDE XOR CALLDATALOAD MULMOD 0xB0 ISZERO 0xD9 SELFBALANCE 0xE2 0xCE PUSH28 0x5110365551ADE49DD96FAE84B4EE11D2D2B3DB64736F6C6343000807 STOP CALLER "
		},
		"gasEstimates": {
			"creation": {
				"codeDepositCost": "201200",
				"executionCost": "245",
				"totalCost": "201445"
			},
			"external": {
				"findUpperBound(uint256[],uint256)": "infinite"
			}
		},
		"methodIdentifiers": {
			"findUpperBound(uint256[],uint256)": "cd59bed9"
		}
	},
	"abi": [
		{
			"inputs": [
				{
					"internalType": "uint256[]",
					"name": "array",
					"type": "uint256[]"
				},
				{
					"internalType": "uint256",
					"name": "element",
					"type": "uint256"
				}
			],
			"name": "findUpperBound",
			"outputs": [
				{
					"internalType": "bool",
					"name": "",
					"type": "bool"
				}
			],
			"stateMutability": "pure",
			"type": "function"
		}
	]
}